:020000020000FC
:100000000EC0189518951895189518951895189567
:1000100018951895BAC1189518951895A7C00FE5A9
:100020000DBF01E00EBF04B7BB9AC398B99AC1983F
:10003000BC9AC498CED0ADD1332721E0FBD0033594
:1000400019F0202F287F19F0789486D107E0302E00
:10005000CEE7D0E010E803E209931A95E9F7789427
:1000600005D006D1FDCF042D05190895451459F486
:100070000D2D979906C00F7311F4C39AF7CFC3984B
:10008000F5CF0F70F9CFC39AAF93BF93BB27A52DC0
:100090000D91A43709F4A0E65A2EBF91AF910895AF
:1000A0000F930AE051D00F9108950F934DD000E2C5
:1000B0004BD00F9108950F9347D008E045D00F9192
:1000C00008950F93032F26D0022F18D00F91089573
:1000D0003BD0F7CF0F932F933F9308E59D01F8DFB7
:1000E00009E59E01F5DF0AE59F01F2DF03E52DB783
:1000F0003EB7EEDF3F912F910F9108950F932F930D
:100100000F93029511D00F910FD02F9100E21CD0C8
:100110000F9108950F932F930F93029505D00F9190
:1001200003D02F910F9108950F7020E3020F0A332F
:1001300058F027E0020F08C00F930591002311F03B
:1001400003D0FBCF0F910895AF93BF93A62DB72D8A
:10015000BA1B08F4B65FBA95D1F3BB270D93AE373F
:1001600009F4A4E76A2EBF91AF910895C49AFFB62F
:1001700020B297990DC0231419F0FFBEC4981895AA
:10018000979AC39AC498FFBE18959798C3981DC0B4
:100190002314B1F30F9308EF0221B9F3AF93BF9388
:1001A000BB27671419F403E20FB907C0A72D0D91FF
:1001B0000FB9AE3709F4A4E77A2EA42D2D92A437F7
:1001C00009F4A0E64A2EBF91AF910F91C498FFBEEB
:1001D00018950F9308E50DB900E40EB903E20FB9C5
:1001E000979896989598949800E6402E502E04E79C
:1001F000602E702E0F910895EF93FF93EFB6F89451
:10020000EE27FF2709E007BF2491E3E007BF349101
:10021000E2E007BF0491EFBEFF91EF910895E199ED
:10022000FECF3FBB2EBBEFB6F8940DBBE29AE19A2E
:10023000EFBE0895E199FECF3FBB2EBBEFB6F89419
:10024000E09A0DB3EFBE08950F930191E8DF239577
:1002500009F433951A95C9F70F9108950F93EADFC2
:100260000193239509F433951A95C9F70F910895D1
:10027000013611F4979A0895023609F421C0063622
:1002800009F46AC0073609F42DC00A3309F42AC0FC
:10029000093609F41FCF0C3611F4C39A08950B36B2
:1002A00011F4C3980895083709F413C0093709F405
:1002B00036C0033209F408950FE346CF0895089538
:1002C0000F930AE027DF04E125DF0BE323DF0F9123
:1002D0000895AEE7B0E010E8C9DE0D931A95E1F796
:1002E0000AE232CFAFE7B0E051E0C0DE0332E9F31B
:1002F0000032D9F3202F005358F00A3048F40D9300
:100300005395513591F70AE21FDF052F03DF08955A
:1003100005E41ADF022F18DF052FFCDE0895CF93C6
:10032000DF930F931F93CEE7D0E011E509910CDF27
:100330001A95E1F70AE208DF1F910F91DF91CF9143
:100340000895CF93DF930F93CDE2D1E001E50FD075
:100350000F91DF91CF910895CF93DF930F93CFE764
:10036000D0E001E504D00F91DF91CF9108951F9364
:10037000102F0991005DE8DE1A95D9F70AE2E4DE54
:100380001F910895089508950895FFB6D394FFBE70
:10039000189502E00ABD04E003BF08EC09BD0FEFA9
:1003A00008BD00E109BF0895C49808D088D087D05F
:1003B00086D0C49A41E06DE271E018C1C49A51E55B
:1003C0008827CEE7D0E0C50F08F4D3950881002335
:1003D00011F01A2D28C0A8D0112721E0C0EDD0E0DF
:1003E000C20F08F4D3953991332311F0139501C04E
:1003F000922F23952A30B9F7193010F004E45FCF1B
:10040000183089F4C49A8395AEE7B0E0A50F08F4DC
:10041000B3959C938A9B06C001E296DE052F6EDEA3
:10042000092F6CDEC498CCE2D1E0C50F08F4D39557
:1004300018835A9531F6882319F08A9931DEBECF98
:10044000C498ADE2B1E0CCEDD0E0EDE2F1E01127EF
:1004500051E00191002319F059930D931395539591
:100460005235B9F7AC92A8821093DA00112309F142
:10047000C49A1091DA008A9985DFADE2B1E0CCED43
:10048000D0E001E08F983D912C919991321748F47A
:100490008F9AB49A2E9311963C9388818A932196D1
:1004A00098830395011779F78F9B03C01A95113034
:1004B00021F70027C498C4988A9964DF0895C498E6
:1004C0000091DA00002371F141E0ACE2B1E0A40F49
:1004D00008F4B395CBEDD0E0C40F08F4D3952227F0
:1004E00059910D91322F202F007FD1F72223D1F087
:1004F000307F30513323932E29292E931196E2E732
:10050000CF0129918D90222361F0FC0105910023F8
:10051000C1F3201711F0A8F3F9CF89288E92119614
:10052000F0CFA6DFC49A0895C49A19E0C1EDD0E0D7
:10053000A9921A95E9F7E2E70591002379F0CEE751
:10054000D0E0C00F08F4D39508810023A9F3C0EDD3
:10055000D0E0C00F08F4D3950883EECFC498089577
:1005600051E5E2DFCEE7D0E0C50F08F4D39528814E
:10057000222381F011E0C0EDD0E0C10F08F4D39543
:100580003991311721F0332389F4121779F4139537
:100590001A30B1F75A9529F78A9B08950FE6D4DDF2
:1005A0000BE6D2DD7DDD0027C4980895C4988A9BB0
:1005B000089505E4C9DD052FA1DD022F9FDD012F80
:1005C0009DDD032F9BDD6CDD052F00680895DBDECC
:1005D00008954CDD03E5352F242F71DE0895A2BE6A
:1005E000C498C49AC49AB8DE00270895C49A3BDD23
:1005F000002321F0EEDF013709F40895ABEDB0E000
:10060000A40F08F4B3955C91552349F3AEE7B0E02D
:10061000A50F08F4B395AC9287DFDB01052F0068C6
:100620000D931AE0C0EDD0E0C10F08F4D395222756
:100630001A9531F00A910023D9F71D932395F8CF2D
:10064000222361F0A150B040BD01CEE7D0E0C50F3C
:1006500008F4D3950C9108834395C8CFC498A15052
:10066000B0400C9107FFF0CF0F77CEE7D0E0C00F7E
:1006700008F4D395A8824A9539F0CBEDD0E0C40FA9
:1006800008F4D3955881EBCF0895AA2407C0CEE78C
:10069000D0E00AEA1FEF09931A95E9F706E4009300
:1006A0007E0002E50093DB0002E400932C0108E5E4
:1006B0000093D00003E400932C0104E400932C0188
:1006C00003E500932C010EE400932D010895E8DC6E
:1006D000ECDC0F93012F12DD0F91011721F00CE3D9
:1006E00033DD05E431DD08950F931F9306E4109187
:1006F0007E00EDDF02E51091DB00E9DF02E41091FE
:100700002C01E5DF08E51091D000E1DF03E4109152
:100710002C01DDDF04E410912C01D9DF03E51091F9
:100720002C01D5DF0EE410912D01D1DFB9DC1F9132
:100730000F91089514E1ACE2B1E001E08F983D9192
:100740002C91231720F48F9A2E9311963C930395A6
:0E0750000117A9F78F9B02C01A9569F708954B
:00000001FF
