:020000020000FC
:040000000C94330029
:040038000C946C02B6
:040048000C946605A9
:1000660008E00EBF0FEF0DBF2224F49AF39AF29A1E
:10007600F59AF69A02E00ABD28E033273ED503E05A
:1000860000931A0209EF00931B022BD2529A5A9838
:10009600539A5B98549A5C98569A5E987894E2D3F1
:1000A600E0EBFBE0E0931302F0931402E2E4F5E3E5
:1000B600C8D404E1B4D40AE3D6D40DE2A4D404B778
:1000C600AED4222424BEF39B04C00AB507FF01C0A8
:1000D60000C0BFD40EE3C7D4D7D43AD0FACF0A456E
:1000E600727248616E6420636D642C20712C2073DB
:1000F600206F722043523A00302E08E4B4D46DD4F7
:10010600F49B08956CD41F93EF93FF93EDB7FEB75E
:100116003496019178D4EE23E1F747D4E3E1F2E097
:1001260018E0019170D41A95E1F7E4EEF0E091D46D
:1001360088D4AAD40D3031F0013731F0033721F0DD
:1001460007D0F3CF90D4032DFF91EF911F9108951F
:10015600F09836D4013619F4E0EBFBE089C001349F
:1001660019F4EAEFFCE084C0023611F41ED429C16A
:10017600033609F405C1043611F4DCD1ABC00434EE
:1001860009F4A8C0053609F4EAC0063609F4B0C079
:10019600073609F4BDC1073419F4F39800E22AC101
:1001A600083609F44EC4093609F445C20A3611F474
:1001B600F59A08950A3411F4F59808950C3611F459
:1001C60063D096C00E3609F415C00F3609F4A9C1DE
:1001D600023709F4ADC0023509F45BC1033711F4E7
:1001E60067C00895043749F4E0EBFBE0E09313029F
:1001F600F0931402F39AFED07BC0043519F4EAEFAB
:10020600FCE0F4CF063709F471C2063509F459C388
:10021600073711F4F49A0895073511F4F498089500
:10022600093711F4F29A0895093511F4F2980895F0
:100236000A3509F415CF033209F45ECF0A3069F0A6
:100246000D3059F0F398B1D3D5D0002319F00FE350
:100256000AD40895F59B08955BD10895F39ACAD000
:10026600002329F445D054D1002309F43FD2089540
:10027600E0931302F0931402F1DF0023E9F30895EB
:100286002E4C6F61643A0000E6E8F2E0DAD311E042
:10029600A8E3B3E0A10F08F4B395C0E0D1E0C10F25
:1002A60008F4D39511E511C02E53617665640D00EF
:1002B60011E0A0E0B1E0A10F08F4B395C8E3D3E0E4
:1002C600C10F08F4D39511E500C00D9109931A9555
:1002D600E1F70895CF93DF930F9301E0CDE1D2E0EC
:1002E600C00F08F4D39512D00F91DF91CF910895E6
:1002F600CF93DF930F9301E0C0E0D1E0C00F08F485
:10030600D39504D00F91DF91CF9108952F933F930A
:100316001F934BD339E029E00991005DA4D32A95B8
:10032600D9F743D33A95B9F71F913F912F91089585
:10033600CF93DF930F9339D3CCE5D1E007D0CDEA45
:10034600D1E004D00F91DF91CF910895099132D376
:100356000991002311F057D3FBCF27D30895CF93EC
:10036600DF930F931F9321D31AE0C2E5D1E00991E1
:100376004AD31A95E1F71F910F91DF91CF91089516
:10038600EF93FF935F930F9310D351E0E6E3FEE202
:1003960006E1059FE00DF11D0F2F41D30E2F33D33C
:1003A600052F31D305912FD3023530F40023D1F731
:1003B600FCD25395523551F70F915F91FF91EF9112
:1003C6000895CF93DF930F93072F29D3062F1BD3BF
:1003D600CCE1D2E00991002319F40FE344D305C020
:1003E60012D3C617B9F7D717A9F7DFD20F91DF9146
:1003F600CF9108955A9AE0911302F091140219E0F0
:100406005527A1E0B1E0F39B04C01395F3990BC007
:100416003BD30132D8F327D31A9531F4102FC5D226
:10042600012F19E001C005910E3209F400E3202FD7
:100436000053E0F00A30D0F40D935395513531F75F
:100446005A98F39B0BD306E60ED3052FE8D2ADD20E
:10045600F39903C02DDF002708953196E093130228
:10046600F0931402F29944DF002708955A9805E4A0
:10047600FAD2052FC8D2022FF6D297D20FEF0895DF
:100486002E6F7267203078002E6462200000300ADA
:100496000000E6E8F4E0D5D226E237E197D285D22D
:1004A60051E035D2EEE8F4E0CCD2CEEFD1E029919E
:1004B60000E3D9D208E7D7D2022FB1D20CE2D3D2C9
:1004C6002223A9F7E4E9F4E0BCD25395523549F763
:1004D6000895FFB6B39419F4C39409F4D394FFBEF8
:1004E60018950F932F9302E404BD00E020911A02A1
:1004F6002770022B05BD00931A0200911B0207BD4F
:100506000FEF08BD02E000936E002F910F91089542
:100516005A9826BCBB24CC24DD240CD08CD08BD09E
:100526008AD05A9A442455246624772441E06DE102
:1005360072E03CC15A9A51E58827C0E0D1E0C50F68
:1005460008F4D3950881002311F0122D28C0ADD0F0
:10055600112721E0C2E5D1E0C20F08F4D395399105
:10056600332311F0139501C0922F23952A30B9F742
:10057600193010F004E4C0CD183089F45B9A8395E5
:10058600A0E0B1E0A50F08F4B3959C93F29B06C0DA
:1005960001E269D2052F37D2092F35D25B98CDE11A
:1005A600D2E0C50F08F4D39518835A9531F68823FF
:1005B60019F0F299FAD1BECF5A98AEEAB1E0CDE57C
:1005C600D1E0EEE1F2E0112751E00191002319F0AC
:1005D60059930D93139553955235B9F72C9228825A
:1005E60010931902112309F15A9A10911902F299DE
:1005F6009FDEAEEAB1E0CDE5D1E001E0F7983D91AE
:100606002C919991321748F4F79A4B9A2E9311969A
:100616003C9388818A93219698830395011779F7ED
:10062600F79B03C01A95113021F700275A985B985B
:10063600F2997EDE08955A9800911902002399F1E5
:1006460041E0ADEAB1E0A40F08F4B395CCE5D1E002
:10065600C40F08F4D395222759910D91322F202FDC
:10066600007FD1F72223F9F0307F30513323932EC8
:1006760029292E931196E6E3FEE206E1059FE00D99
:10068600F11DCF0129918D90222361F0FC01059186
:100696000023C1F3201711F0A8F3F9CF89288E9211
:1006A6001196F0CFA1DF5A9A08955C9A19E0C3E536
:1006B600D1E029921A95E9F7E6E3FEE206E1059F05
:1006C600E00DF11D0591002379F0C0E0D1E0C00FE7
:1006D60008F4D39508810023A9F3C2E5D1E0C00F41
:1006E60008F4D3950883EECF5C98089551E5DDDFD5
:1006F600C0E0D1E0C50F08F4D3952881222381F00C
:1007060011E0C2E5D1E0C10F08F4D3953991311754
:1007160021F0332389F4121779F413951A30B1F7BF
:100726005A9529F7F29B08950FE69DD10BE69BD1CA
:100736003CD100275B9808955B98F29B089505E4E9
:1007460092D1052F60D1022F5ED1012F5CD1032FEC
:100756005AD12BD1052F0068089533DE089594D120
:1007660003E5352F242FC8DC089526BC5C985B9AD8
:10077600BF92CF921AD104E51DD10D2D44D10F9110
:1007860042D10F9140D10EE415D1721419F0072D04
:100796003AD102C0621411F0062D35D1052D33D1A0
:1007A600042D31D15C9AA4DD002708955B9A64D1AB
:1007B600002321F0D4DF013709F40895439459F456
:1007C600539449F40EE2F2990093C600F699C5DFF8
:1007D600639409F47394ACE5B1E0A40F08F4B395FF
:1007E6005C91552311F2A0E0B1E0A50F08F4B39592
:1007F6002C925BDFDB01052F00680D931AE0C2E542
:10080600D1E0C10F08F4D39522271A9531F00A9149
:100816000023D9F71D932395F8CF222361F0A15029
:10082600B040BD01C0E0D1E0C50F08F4D3950C91EE
:1008360008834395BBCF5B98A150B0400C9107FF4E
:10084600F0CF0F77C0E0D1E0C00F08F4D39528822F
:100856004A9539F0CCE5D1E0C40F08F4D395588118
:10086600EBCF0895222407C0C0E0D1E00AEA1FEFCB
:1008760009931A95E9F706E40093000102E500934F
:100886005C0102E400931C0208E50093520103E4B4
:100896000093FE0104E400931D0203E50093AD01FD
:1008A6000EE400933703089580D084D00F93012F70
:1008B600AAD00F91011721F00CE3D5D005E4D3D0CF
:1008C60008950F931F9306E410910001EDDF02E5F2
:1008D60010915C01E9DF02E410911C02E5DF08E5F6
:1008E60010915201E1DF03E41091FE01DDDF04E423
:1008F60010911D02D9DF03E51091AD01D5DF0EE49D
:1009060010913703D1DF51D01F910F9108955A9A54
:10091600CEEFD1E0EDE5FBE0E50FF21D3491232F9C
:100926002F7032953F7019E0319F002D0850051742
:1009360009F0099303951A95D1F719E0022F0517C7
:1009460009F00993075F1A95D1F7243010F0235068
:10095600FCCF343010F03350FCCF3A9513E0319F82
:10096600200D2A95220F220FEAE3FBE0E20FF21D8B
:1009760014E00591050F09931A95D9F728825A981C
:1009860014E1AEEFB1E001E0F7983D912C91231709
:1009960020F4F79A2E9311963C9303950117A9F725
:1009A600F79B02C01A9569F708950F930AE05BD08A
:1009B6000F9108950F9357D000E255D00F910895E7
:1009C6000F9351D008E04FD00F9108950F93032F46
:1009D60026D0022F18D00F91089545D0F7CF0F9348
:1009E6002F933F9308E59D01F8DF09E59E01F5DFAA
:1009F6000AE59F01F2DF03E52DB73EB7EEDF3F9133
:100A06002F910F9108950F932F930F93029511D065
:100A16000F910FD02F9100E226D00F9108950F93DA
:100A26002F930F93029505D00F9103D02F910F911D
:100A360008950F7020E3020F0A33A8F027E0020F93
:100A460012C00F930591002311F00DD0FBCF0F912B
:100A560008950F9301E107D00F9108950F9303E1D5
:100A660002D00F9108950F930091C00005FFFCCFAF
:100A76000F910093C60008951F93009115021091DF
:100A86001702011B1F9108955B9AAF93BF93A09124
:100A96001702B0911802009115020A17E1F30D91A1
:100AA600AC3D11F4ABE8B3E0A0931702B093180283
:100AB600BF91AF915B9808950091C00007FFFCCFEE
:100AC6000091C60008955C9AFFB60F930091C60088
:100AD600AF93BF93A0911502B09116020D93AC3D52
:100AE60011F4ABE8B3E0A0931502B0931602BF91E0
:100AF600AF910F91FFBE5C9818950F933093C50088
:100B06002093C40008E90093C10006E00093C200E8
:100B160003E000931602009318020BE800931502F7
:100B2600009317020EE300938A030CE30093DC03A1
:100B36000F9108950A0B1314080A111307081011D0
:100B4600F8F90A0BF6F8080AF5F60708EFF0F8F9CF
:100B5600EDEFF6F8ECEDF5F611121314151617185D
:100B660019212223242526272829313233343536E4
:100B76003738394142434445464748495152535410
:100B8600555657585961626364656667686971723C
:100B96007374757677787981828384858687888968
:100BA6009192939495969798990039383735342EC3
:100BB6002E2E2E33362E2E382E392E37343231390C
:100BC6002E33382E2E382E2E2E392E2E3332313904
:100BD6002E332E38372E3632373336352E2E3938D9
:100BE6002E34322E362E3531332E2E392E31352EE9
:100BF60038342E31383433322E372E582E2E3635A1
:100C0600343837332E313837363339353234352E9A
:100C1600332E373139362E363735393234312E3395
:100C260034332E31382E363532323138332E353490
:100C3600393738352E34312E33372E37392E38356D
:100C460033323436332E34372E3238313558332E4C
:100C56002E3735312E2E2E2E392E2E322E2E352E85
:100C6600352E2E2E332E3237362E2E3932382E355D
:100C76002E2E2E2E2E33392E2E2E34372E332E3662
:100C860034382E2E3137322E2E2E362E352E342E49
:100C96002E2E2E2E382E2E2E38352E392E2E32581A
:100CA6002E382E2E35342E2E312E2E2E2E2E392E39
:100CB6003734332E322E3837362E2E32352E342E0A
:100CC6002E2E2E2E372E362E312E3439382E2E3805
:100CD6002E2E362E2E352E2E342E2E2E3133363601
:100CE6002E39322E2E2E2E2E352E2E38362E2E34F0
:100CF6002E585A5A342E2E2E2E2E382E352E332E70
:100D06002E2E2E2E2E2E2E2E2E372E2E2E2E2E2EF4
:100D1600322E2E2E2E2E362E2E2E2E2E382E342ED1
:100D26002E2E2E2E2E312E2E2E2E2E2E2E362E33CD
:100D36002E372E352E2E322E2E2E2E2E312E342EB0
:100D46002E2E2E2E2E5835322E2E2E362E2E2E2E80
:100D56002E2E2E2E2E372E31332E2E2E2E2E2E2E9C
:100D66002E2E2E2E342E2E382E2E362E2E2E2E2E85
:100D76002E352E2E2E2E2E2E2E2E2E2E2E34313873
:100D86002E2E2E2E2E2E2E2E2E332E2E322E2E2E74
:100D960038372E2E2E2E2E58362E2E2E2E2E382E1E
:100DA600332E342E372E2E2E2E2E2E2E2E2E2E2E49
:100DB6002E2E2E2E2E2E352E342E372E332E2E322E
:100DC6002E2E2E2E2E312E362E2E2E2E2E2E2E322E
:100DD6002E2E2E2E2E352E2E2E2E2E382E362E2E14
:100DE6002E2E2E2E312E2E2E2E5834382E332E2EDB
:100DF6002E2E2E2E2E2E2E2E2E2E37312E322E2EFD
:100E06002E2E2E2E2E372E352E2E2E2E362E2E2EE4
:100E16002E322E2E382E2E2E2E2E2E2E2E2E2E2EDE
:100E26002E2E312E37362E2E2E332E2E2E2E2E34BD
:100E36002E2E2E2E2E2E352E2E2E2E582E2E2E2E9B
:100E460031342E2E2E2E332E2E2E2E322E2E2E37A1
:100E56002E2E2E2E2E2E2E2E2E2E392E2E2E332E9C
:100E6600362E312E2E2E2E2E2E2E2E2E2E2E2E2E91
:100E7600382E322E2E2E2E2E312E342E2E2E2E356E
:100E86002E362E2E2E2E2E372E382E2E2E582E2E37
:100E96002E2E2E2E35322E2E382E342E2E2E2E2E51
:100EA6002E332E2E2E392E2E2E352E312E2E2E363A
:100EB6002E2E322E2E372E2E2E2E2E2E2E2E332E3A
:100EC6002E2E2E2E362E2E2E312E2E2E2E2E2E2E31
:100ED6002E2E2E372E342E2E2E2E2E2E2E332E58EE
:100EE600362E322E352E2E2E2E2E2E2E2E2E332E04
:100EF600342E2E2E2E2E2E2E2E2E2E34332E2E2EFB
:100F0600382E2E2E2E312E2E2E2E322E2E2E2E2EEA
:100F16002E2E2E372E2E352E2E32372E2E2E2E2ECE
:100F26002E2E2E2E2E2E38312E2E2E362E2E2E2EC6
:100F36002E582E3532342E2E2E2E2E2E2E2E2E3787
:100F46002E312E2E2E2E2E2E2E2E2E2E2E2E2E2EB8
:100F5600382E322E2E2E332E2E2E2E2E362E2E2E90
:100F6600392E352E2E2E2E2E312E362E332E2E2E79
:100F76002E2E2E2E2E2E2E2E3839372E2E2E2E2E6D
:100F86002E2E2E58362E322E352E2E2E2E2E2E2E3E
:100F96002E2E342E332E2E2E2E2E2E2E2E2E2E345A
:100FA600332E2E2E382E2E2E2E312E2E2E2E322E45
:100FB6002E2E2E2E2E2E2E372E2E352E2E32372E2E
:100FC6002E2E2E2E2E2E2E2E2E2E38312E2E2E3626
:100FD6002E2E2E2E2E582E3932332E2E2E2E2E2EED
:100FE6002E2E2E382E312E2E2E2E2E2E2E2E2E2E0E
:100FF6002E312E372E342E2E2E2E2E2E2E2E2E2EF9
:101006002E3635382E2E2E2E2E2E2E2E2E362E35D2
:101016002E322E2E2E342E2E2E2E2E372E2E2E2ED7
:101026002E392E2E2E2E2E58362E2E332E322E2E94
:101036002E2E352E2E2E2E2E312E2E2E2E2E2E2EC0
:101046002E2E2E372E32362E2E2E2E2E2E2E2E2EA5
:101056002E2E2E3534332E2E2E2E2E2E2E2E2E388E
:101066002E31352E2E2E2E2E2E2E2E342E322E2E86
:101076002E2E2E2E2E2E372E2E582E362E352E3145
:101086002E392E312E2E2E392E2E3533392E2E2E4A
:101096002E372E2E2E2E342E382E2E2E372E2E2E48
:1010A6002E2E2E2E352E382E3831372E352E332E27
:1010B6002E2E2E2E352E322E2E2E2E2E2E2E2E2E3F
:1010C6002E2E2E37362E2E382E2E2E582E2E352EEE
:1010D6002E2E3938372E342E2E352E2E2E312E2EFC
:1010E600372E2E2E2E2E2E322E2E2E34382E2E2EFD
:1010F6002E392E312E2E2E2E2E362E2E322E2E2EF0
:101106002E2E332E2E362E2E322E2E2E2E2E2E2EE8
:10111600392E372E2E2E2E2E2E2E352E2E58332E9F
:10112600362E372E2E2E2E2E2E2E2E2E2E2E3531BE
:10113600382E2E2E2E2E2E2E2E2E312E342E352EAF
:101146002E2E372E2E2E2E2E362E2E2E2E2E322EA4
:101156002E2E2E2E2E322E2E2E2E2E342E2E2E2E9F
:101166002E382E332E2E2E2E2E352E2E2E2E2E5859
:10117600312E2E2E2E2E332E382E372E342E2E2E68
:101186002E2E2E2E2E2E2E2E2E2E2E322E332E316D
:101196002E2E2E2E2E2E2E2E2E2E2E3935382E2E4D
:1011A6002E2E2E2E2E2E2E352E362E2E2E372E2E41
:1011B6002E2E2E382E322E2E2E342E2E2E2E2E2E35
:1011C6002E58362E2E332E322E2E2E2E342E2E2EF8
:1011D6002E2E312E2E2E2E2E2E2E2E2E2E372E3219
:1011E600362E2E2E2E2E2E2E2E2E2E2E2E353433FF
:1011F6002E2E2E2E2E2E2E2E2E382E31352E2E2EF5
:101206002E2E2E2E2E342E322E2E2E2E2E2E2E2EEE
:10121600372E2E582E2E2E2E332E2E392E2E2E2EA5
:10122600322E2E2E2E312E352E392E2E2E2E2E2EBF
:101236002E2E2E2E2E2E2E2E312E322E382E342EB1
:10124600362E382E352E2E2E322E2E37352E2E2E8B
:101256002E2E2E342E312E2E362E2E332E2E2E2E92
:101266002E342E362E5834352E2E2E2E2E332E2E4E
:101276002E2E382E312E2E2E2E392E2E2E2E2E2E70
:101286002E2E2E2E2E352E2E392E322E2E372E2E59
:101296002E2E2E382E2E2E2E2E2E2E2E2E312E2E5B
:1012A600342E2E2E2E2E2E2E2E2E2E372E322E2E45
:1012B6002E362E2E382E2E582E3233372E2E2E2EFA
:1012C60036382E2E2E362E35392E392E2E2E2E2E01
:1012D600372E2E2E2E2E2E342E39372E332E372EF7
:1012E60039362E2E322E2E2E2E2E2E2E2E2E352EFA
:1012F6002E34372E2E2E2E2E2E2E2E2E322E2E2EF5
:101306002E382E2E2E2E2E2E2E582E2E38342E2EB3
:101316002E332E2E2E2E332E2E2E2E2E392E2E2ED2
:101326002E3135373437392E2E2E382E2E2E2E2EA0
:101336002E2E2E372E2E3531342E2E2E2E2E322EAA
:101346002E2E392E362E2E2E322E352E2E2E2E3493
:101356002E2E2E2E2E2E392E2E3536582E39382E4E
:10136600312E2E2E2E322E2E2E2E2E2E362E2E2E88
:101376002E2E2E2E2E2E2E2E2E2E332E322E352E77
:101386002E38342E2E2E2E2E2E2E2E2E362E2E2E5F
:101396002E2E2E2E2E2E342E382E39332E2E352E40
:1013A6002E2E2E2E2E2E2E2E2E2E312E2E582E2E2A
:1013B6003234372E2E35382E2E2E2E2E2E2E2E2E23
:1013C6002E2E2E2E2E312E342E2E2E2E2E322E2E2A
:1013D6002E393532382E392E342E2E2E2E392E2EEB
:1013E6002E312E2E2E2E2E2E2E2E2E332E332E2E0A
:1013F6002E2E37352E2E3638352E2E322E2E2E58B0
:10140600342E2E2E2E2E382E352E332E2E2E2E2EDA
:101416002E2E2E2E2E372E2E2E2E2E2E322E2E2ED9
:101426002E2E362E2E2E2E2E352E342E2E2E2E2EC1
:101436002E312E2E2E2E2E2E2E362E332E372E35A6
:101446002E2E322E2E2E2E2E312E392E2E2E2E2EA4
:101456002E582E322E332E2E2E2E2E2E36332E2E66
:101466002E2E2E35382E2E2E2E2E2E2E31352E2E7B
:101476002E2E392E332E2E2E2E372E2E2E2E2E2E6D
:101486002E2E312E2E2E2E382E3837392E2E32363F
:101496002E2E2E2E2E2E362E372E2E2E362E2E3744
:1014A6002E2E3458312E2E2E2E2E372E392E342E09
:1014B6002E2E37322E2E382E2E2E2E2E2E2E2E2E2F
:1014C600372E2E312E2E362E332E2E2E2E2E2E2E1D
:1014D600352E362E2E342E2E322E2E2E2E2E2E2E0D
:1014E6002E2E382E2E35332E2E2E372E372E322EEA
:1014F6002E2E2E343658342E2E2E2E2E332E2E2EC3
:101506002E2E382E322E2E2E2E2E2E372E2E2E2EDE
:101516002E2E2E2E312E2E2E383733342E2E2E2EC4
:101526002E2E2E362E2E2E2E2E2E2E2E352E2E2EC6
:10153600362E2E2E2E2E2E2E2E312E342E2E2E38AA
:10154600322E2E2E2E2E2E582E2E2E2E2E2E2E377E
:10155600312E322E382E2E2E2E2E2E2E2E342E3389
:101566002E2E2E372E2E2E362E2E352E2E2E2E3279
:101576002E2E332E2E392E2E2E2E2E2E2E2E362E6D
:101586002E2E372E2E2E2E2E382E2E2E2E342E2E5C
:101596002E2E2E2E352E2E2E2E58362E2E332E3223
:1015A6002E2E2E2E342E2E2E2E2E382E2E2E2E2E45
:1015B6002E2E2E2E2E372E32362E2E2E2E2E2E2E30
:1015C6002E2E2E2E2E3534332E2E2E2E2E2E2E2E23
:1015D6002E382E31352E2E2E2E2E2E2E2E382E3203
:1015E6002E2E2E2E2E2E2E2E372E2E582E34372ED3
:1015F600382E2E2E312E2E2E2E2E2E2E2E2E2E2EF8
:101606002E362E2E372E2E362E2E2E2E3335372EC6
:101616002E2E2E2E2E352E2E2E2E312E2E362E2ED2
:101626002E2E32382E2E342E2E2E2E2E392E312EB2
:101636002E2E342E2E2E2E2E322E36392E582E2E7D
:101646002E2E2E2E382E31372E2E322E2E2E2E2E9A
:101656002E2E2E352E362E2E2E2E2E2E372E2E2E8C
:10166600352E2E312E2E2E2E332E2E2E382E2E2E7B
:101676002E2E2E2E352E2E2E2E2E2E322E2E342E73
:101686002E382E2E2E2E362E2E2E332E2E2E2E5833
:1016960033382E362E2E2E2E2E2E2E392E2E2E2E42
:1016A6002E2E2E322E2E332E35312E2E2E2E2E2E41
:1016B600352E2E2E2E332E2E312E2E362E2E2E2E2D
:1016C600342E2E2E2E2E2E31372E352E2E382E2E11
:1016D6002E2E2E2E2E392E2E2E2E2E2E2E372E330B
:1016E60032582E2E2E352E2E2E2E2E2E2E2E2E2EDF
:1016F6002E352E3639372E2E2E2E2E322E2E2E34D7
:10170600382E322E2E2E32352E312E2E2E332E2ED2
:10171600382E2E332E2E2E2E2E2E2E2E2E342E37C5
:101726002E2E31332E352E2E392E2E322E2E2E33B0
:10173600312E2E582E322E2E2E2E2E2E2E332E3586
:101746002E36322E2E392E36382E2E2E332E2E2E85
:10175600352E2E2E2E2E2E2E2E2E2E36342E382E84
:10176600322E2E34372E2E392E2E2E2E332E2E2E70
:101776002E2E312E2E2E2E2E362E2E2E31372E3466
:10178600332E2E2E2E582E382E2E342E2E2E2E332F
:101796002E2E2E2E2E2E312E2E2E2E2E2E2E2E325C
:1017A6002E2E2E352E2E2E342E36392E2E312E2E30
:1017B600382E2E322E2E2E2E2E2E2E2E2E2E2E3330
:1017C6002E392E2E2E2E362E2E2E2E352E2E2E2E19
:1017D6002E322E2E2E2E2E582E2E382E392E312EDD
:1017E6002E2E362E352E2E2E322E2E2E2E2E2E36F8
:1017F6002E2E2E2E332E312E372E352E2E2E2E2EEB
:101806002E2E2E2E392E2E342E2E2E332E2E2E35D5
:101816002E2E2E2E322E2E2E372E2E2E332E382EC6
:10182600322E2E372E2E2E2E3458342E2E2E2E2E8F
:10183600352E382E332E2E2E2E2E2E2E2E2E2E37A3
:101846002E2E2E2E2E2E322E2E2E2E2E362E2E2EA6
:101856002E2E352E382E2E2E2E2E2E312E2E2E2E8E
:101866002E2E2E362E332E372E352E2E322E2E2E71
:101876002E2E312E382E2E2E2E2E2E58312E2E2E48
:101886002E2E332E382E362E342E2E2E2E2E2E2E55
:101896002E2E2E2E2E2E2E322E332E312E2E2E2E56
:1018A6002E2E2E2E2E2E2E3935382E2E2E2E2E2E36
:1018B6002E2E2E352E362E2E2E372E2E2E2E2E3820
:1018C6002E322E2E2E342E2E2E2E2E2E2E58312EFB
:1018D6002E2E2E362E382E2E36342E2E2E2E2E2E02
:1018E6002E2E2E2E342E2E2E372E2E2E2E392E36F0
:1018F6002E2E2E372E342E2E352E2E352E2E2E37DC
:101906002E312E2E2E352E2E2E2E33322E332E2ED9
:101916002E2E382E2E2E342E2E2E2E2E2E2E2E58A7
:101926003234392E362E2E2E332E332E2E2E2E32A6
:101936002E2E382E2E2E2E2E2E2E352E2E2E2E2EB0
:10194600362E2E2E2E2E2E322E2E2E2E2E2E312EA2
:101956002E342E38322E2E392E352E2E372E2E2E72
:101966002E342E2E2E2E2E312E372E2E2E332E2E7A
:101976002E582E2E2E382E2E2E2E392E3837332E2A
:101986002E2E342E362E2E372E2E2E2E2E2E2E3850
:10199600352E2E39372E2E2E2E2E2E2E2E2E2E2E46
:1019A60034332E2E37352E2E2E2E2E2E2E332E2E31
:1019B6002E2E332E2E2E3134352E342E2E2E2E3222
:1019C6002E2E31582E2E2E352E312E2E2E2E392EEF
:1019D6002E2E2E382E2E2E362E2E2E2E2E2E2E3409
:1019E6002E312E2E2E2E2E2E2E2E2E2E372E2E39FA
:1019F6002E2E2E2E2E2E2E2E332E382E2E2E2E2EF2
:101A0600312E352E2E2E322E2E342E2E2E2E2E33D7
:101A1600362E2E2E2E582E2E2E2E2E2E382E313699
:101A26002E2E322E2E2E2E2E2E2E2E372E352E2EBC
:101A36002E2E2E2E362E2E2E322E2E312E2E2E2EB1
:101A4600332E2E2E382E2E2E2E2E2E2E322E2E2E9D
:101A56002E2E2E372E2E332E2E382E2E2E2E352E81
:101A66002E2E342E2E2E2E582E3437362E2E2E3542
:101A76002E382E332E2E2E2E2E322E2E2E2E2E3962
:101A86002E2E2E2E2E2E382E352E2E362E2E2E3154
:101A96002E2E2E2E2E362E32342E2E2E2E2E2E3745
:101AA600382E2E2E35312E2E2E362E2E2E2E342E2E
:101AB6002E392E2E2E342E2E37582E2E2E2E2E37F3
:101AC6002E39352E2E2E2E2E312E2E2E38362E2E09
:101AD600322E2E2E2E2E322E2E37332E2E38352EF9
:101AE6002E2E2E2E2E362E2E2E332E2E34392E2EF2
:101AF600332E352E2E2E34313732342E2E2E2E2ED8
:101B06002E2E2E2E2E2E2E2E2E2E2E582E342E35B8
:101B16002E2E2E2E2E382E2E2E392E2E332E2E37BC
:101B2600362E322E2E2E2E2E3134362E2E2E2E2EB2
:101B36002E2E2E2E2E392E2E372E2E2E2E2E33369E
:101B46002E2E2E2E312E2E342E352E2E362E2E2E97
:101B56002E2E2E332E2E37312E2E322E2E582E3856
:101B660033342E2E2E2E2E2E2E2E2E372E2E352E74
:101B76002E2E2E2E2E2E2E2E2E2E342E312E382E6C
:101B86002E2E2E2E2E2E2E2E2E32372E2E2E332E5D
:101B96002E2E2E2E322E362E352E2E2E2E352E2E45
:101BA6002E2E2E382E2E2E2E2E2E2E2E312E2E5818
:101BB6002E2E392E2E2E2E2E332E2E2E2E2E392E24
:101BC6002E2E372E2E2E2E2E352E362E2E36352E08
:101BD6002E342E2E2E2E2E332E2E2E2E2E2E323806
:101BE6002E2E2E2E2E2E332E2E37352E362E2E36EA
:101BF6002E2E2E2E2E2E2E2E2E2E2E31322E332EF3
:101C060038582E32362E33392E2E2E2E2E2E362E96
:101C16002E2E2E31392E2E2E2E2E372E2E2E2E2EC7
:101C26002E2E342E2E392E352E2E2E2E322E2E2EB2
:101C36002E38352E2E2E2E2E332E2E322E2E392E99
:101C46002E342E2E2E2E3736322E2E2E2E2E2E2E93
:101C56002E2E3458322E332E382E2E2E2E382E2E51
:101C6600372E2E2E2E2E2E2E2E2E2E2E312E2E2E82
:101C7600362E352E372E2E2E342E2E2E2E2E2E335B
:101C86002E2E2E2E312E2E2E2E2E2E2E2E2E2E2E6B
:101C96002E38322E352E2E2E2E362E2E2E312E2E3E
:101CA6002E2E2E2E2E58362E2E332E322E2E2E2E13
:101CB600312E2E2E2E2E352E2E2E2E2E2E2E2E2E34
:101CC6002E372E32362E2E2E2E2E2E2E2E2E2E2E19
:101CD6002E3834332E2E2E2E2E2E2E2E2E382E31FC
:101CE600352E2E2E2E2E2E2E2E382E322E2E2E2EF9
:101CF6002E2E2E2E372E2E58312E2E2E2E2E392EBD
:101D06002E2E36342E2E312E372E2E372E2E342EC4
:101D16002E2E2E2E2E2E332E2E2E2E2E332E3839BE
:101D26002E2E352E2E2E2E372E2E2E2E322E2E2EB9
:101D36002E2E362E372E392E2E2E2E2E342E312E98
:101D46002E2E2E3132392E332E582E2E2E2E2E2E6C
:101D56002E2E2E392E2E2E2E2E2E38342E36323371
:101D66002E2E2E352E2E2E2E362E2E2E3435332E6C
:101D76002E2E312E2E2E362E2E2E392E2E2E372E5E
:101D86002E2E2E312E2E2E2E2E342E352E2E322E59
:101D96002E2E2E332E382E2E2E2E39582E322E2E15
:101DA6002E2E353933382E2E352E2E34362E393406
:101DB6002E2E362E2E2E382E2E322E332E2E2E2E22
:101DC6002E362E2E382E37332E372E2E322E2E2E00
:101DD6002E2E2E2E2E2E342E33382E2E372E2E2EFF
:101DE6002E362E2E2E2E2E2E2E2E2E2E3558392EC9
:101DF600342E2E352E2E2E32352E362E2E312E2EDA
:101E060033312E2E2E2E2E2E382E372E2E2E392EC6
:101E16002E2E342E2E32362E2E2E2E2E2E313437B8
:101E26002E2E2E2E372E2E2E2E2E2E2E322E2E2EBF
:101E3600332E2E382E362E342E2E2E2E2E392E586A
:101E46002E2E2E35322E2E2E2E2E392E2E2E332E91
:101E56002E342E2E2E2E2E2E372E2E2E312E2E2E8A
:101E66002E2E342E2E382E2E3435332E2E362E2E62
:101E76002E312E2E2E38372E322E2E2E2E2E2E2E62
:101E86002E382E2E2E2E33322E342E2E382E2E3146
:101E96002E5835332E2E322E392E2E2E32342E3308
:101EA6002E2E352E2E2E392E2E2E2E2E2E2E2E2E3A
:101EB6002E312E3832372E2E2E372E2E2E2E2E2E19
:101EC6002E2E2E3938312E2E2E2E2E2E2E2E2E2E14
:101ED6002E2E2E36342E2E2E2E39312E322E352EF5
:101EE60034332E58312E2E2E2E3738362E2E2E37B0
:101EF6002E2E382E312E382E2E322E2E2E2E392ED6
:101F06002E2E2E2E2E2E2E32342E2E2E312E2E2EDE
:101F16002E2E2E392E2E352E2E2E362E382E2E2EB7
:101F26002E2E2E2E2E2E2E352E392E2E2E2E2E2EB9
:101F36002E39332E34582E2E2E2E352E2E2E31316E
:101F46002E2E2E2E2E2E372E2E362E2E2E2E2E3890
:101F56002E2E2E2E2E2E342E2E2E2E2E392E312E87
:101F6600332E2E2E2E2E3539362E322E2E382E2E5E
:101F760036322E2E372E2E372E2E2E2E2E2E332E58
:101F8600352E372E322E2E582E34372E322E2E2E1A
:101F96002E382E2E2E2E312E2E2E2E332E2E2E2E49
:101FA600392E322E2E2E2E2E352E2E2E362E2E3823
:101FB600312E2E352E2E2E2E2E342E2E2E2E2E3722
:101FC6002E2E2E2E332E342E2E2E392E2E2E312E12
:101FD600342E2E32372E382E2E582E2E2E2E2E2ED4
:101FE60039342E2E2E2E2E392E2E2E35332E2E2EE3
:101FF6002E352E372E2E382E342E2E312E2E3436CA
:10200600332E2E2E2E2E2E2E2E2E2E2E372E382ED2
:10201600382E2E372E2E2E2E2E372E2E2E2E2E2EBE
:1020260032382E352E32362E2E2E2E582E322E2E7B
:102036002E2E2E2E362E2E2E2E34312E2E2E2E2EA9
:1020460037382E2E2E2E312E2E2E2E2E2E372E2E8B
:102056002E2E33372E2E2E2E2E362E2E3431322E77
:102066002E2E2E312E2E37342E2E352E2E382E3560
:102076002E2E372E2E2E2E2E2E33392E2E58312E34
:102086002E2E2E2E332E382E362E342E2E2E2E2E4D
:102096002E2E2E2E2E2E2E2E2E322E332E312E2E4E
:1020A6002E2E2E2E2E2E2E2E2E3735382E2E2E2E30
:1020B6002E2E2E2E2E372E352E2E2E362E2E2E2E22
:1020C6002E382E322E2E2E342E2E2E2E2E2E2E58EC
:1020D600322E2E2E2E312E392E2E312E2E332E37F7
:1020E6002E2E392E2E382E2E2E322E2E2E2E2E2EF1
:1020F6002E38352E2E362E342E2E2E2E2E2E2E2EDB
:102106002E372E2E2E332E322E332E2E2E362E2ECA
:102116002E2E352E2E2E2E2E312E392E2E2E322EC0
:1021260035582E2E372E2E382E2E2E2E2E362E3279
:102136002E332E2E2E332E2E2E2E2E2E392E312EA1
:102146002E352E2E362E2E2E2E2E312E2E2E2E2E97
:10215600372E392E2E2E2E322E2E2E2E2E2E2E2E81
:10216600342E38332E2E342E2E2E32362E2E2E2E62
:1021760035312E582E2E2E33362E2E2E2E38352E27
:102186002E2E2E2E2E2E392E342E2E382E2E2E2E4E
:102196002E2E2E2E36382E2E2E2E2E2E2E2E2E3144
:1021A600372E2E392E2E34352E2E2E312E352E2E1E
:1021B6002E362E342E2E2E2E392E2E322E2E2E2E1C
:1021C6002E332E2E2E5833342E362E2E2E2E2E2EE7
:1021D6002E372E2E2E2E2E2E2E322E2E382E3537F2
:1021E6002E2E2E2E2E2E352E2E2E2E372E2E312EF6
:1021F6002E322E2E2E2E342E2E2E2E2E2E33362EE2
:10220600322E2E312E2E2E2E2E2E2E392E2E2E2ED6
:102216002E2E2E372E3832582E2E2E2E2E2E342E91
:1022260031382E2E322E2E2E2E2E2E2E2E362E37A6
:102236002E2E2E2E2E2E382E2E2E362E2E342E2EA0
:102246002E2E332E2E2E312E2E2E2E2E2E2E362E98
:102256002E2E2E2E2E322E2E352E2E312E2E2E2E8A
:10226600372E2E2E332E2E2E2E582E342E2E352E43
:102276002E36372E2E2E312E2E2E342E2E2E2E325A
:102286002E2E2E2E2E312E2E382E2E332E2E2E2E56
:102296002E2E2E2E322E2E2E362E2E2E2E2E2E2E4C
:1022A6002E2E2E2E342E2E352E332E2E2E2E2E382C
:1022B6002E2E322E2E2E2E2E2E2E2E582E2E2E2E0A
:1022C6002E2E2E342E2E2E322E2E342E2E312E370C
:1022D6002E2E352E2E392E2E2E332E2E372E2E2EF8
:1022E6002E342E2E362E2E2E2E362E2E312E2E38E5
:1022F6002E2E2E322E2E2E2E312E2E38352E392ED5
:102306002E2E362E2E2E2E2E382E2E2E3358382E9C
:102316002E372E2E2E2E342E352E2E2E2E362E2EB9
:102326002E2E2E2E2E2E2E2E2E2E332E39372E2EAE
:102336002E382E2E2E2E34332E2E352E2E2E2E3297
:102346002E392E2E2E2E362E2E2E2E2E2E322E2E90
:102356002E362E2E2E372E37312E2E38332E32583D
:102366002E382E2E2E342E352E2E2E2E372E2E3362
:102376002E2E2E2E2E2E2E2E2E2E2E2E312E2E386A
:10238600352E2E2E362E2E2E2E2E322E2E2E2E2E54
:102396002E342E2E2E2E332E32362E2E2E2E2E2E40
:1023A6002E2E2E2E2E2E3431372E2E2E2E2E2E2E35
:1023B6002E582E2E2E2E372E2E382E2E2E362E2EF2
:1023C6002E352E2E2E322E2E2E332E36312E312E09
:1023D6002E2E372E2E322E2E382E2E3533342E32EA
:1023E6002E2E392E2E2E2E2E2E2E322E2E2E2E2EF8
:1023F6002E35382E2E2E362E332E342E2E2E312ED0
:102406002E2E2E582E2E2E2E2E2E382E31362E2EA7
:10241600322E2E2E2E2E2E2E2E372E352E2E2E2EC2
:102426002E2E362E2E2E322E2E312E2E2E2E332EB2
:102436002E2E382E2E2E2E2E2E2E322E2E2E2E2EA8
:102446002E372E2E342E2E382E2E2E2E352E2E2E86
:10245600332E2E2E2E582E322E2E2E2E2E2E2E2E63
:102466002E2E362E2E2E2E332E37342E382E2E2E60
:102476002E2E2E2E2E2E332E2E322E382E2E342E5D
:102486002E312E362E2E352E2E2E2E2E2E2E2E2E54
:10249600312E37382E352E2E2E2E392E2E2E2E2E2E
:1024A6002E2E2E2E2E342E582E35322E2E36382EF9
:1024B6002E2E2E2E2E2E372E322E2E2E2E2E2E2E29
:1024C600362E2E2E2E34382E2E392E2E322E2E34F9
:1024D600312E2E2E2E2E2E312E2E2E2E2E382E2E06
:1024E60036312E2E33382E2E2E2E2E392E2E2E36D9
:1024F600332E2E362E2E312E39582E2E2E2E312EAE
:1025060037382E352E2E2E2E392E2E2E2E2E2E2EC0
:102516002E2E2E342E2E322E2E2E2E2E2E2E2E2ECB
:102526002E362E2E2E2E332E37342E382E2E2E2E9F
:102536002E2E2E2E2E332E2E322E382E2E342E2E9C
:10254600312E362E2E352E2E2E2E2E58312E2E2E66
:102556002E2E2E2E332E362E332E2E372E2E2E3771
:102566002E2E2E352E2E3132312E372E2E2E392E60
:102576002E2E372E2E2E2E2E2E2E2E382E312E2E5F
:10258600322E2E2E2E382E36342E2E2E2E392E323A
:102596002E2E362E2E2E2E342E2E2E2E2E58342E17
:1025A6002E2E372E312E2E2E2E31392E34362E3516
:1025B6002E2E2E2E2E312E2E2E2E2E2E372E2E2E29
:1025C6002E322E2E322E332E2E2E2E3834372E2EFF
:1025D600362E2E2E2E31342E2E2E382E362E322EEE
:1025E6002E2E2E332E2E362E2E2E392E2E2E2E58C3
:1025F6002E2E2E2E2E2E382E31372E2E322E2E2EDB
:102606002E2E2E2E2E352E362E2E2E2E2E2E372ECC
:102616002E2E352E2E312E2E2E2E332E2E2E382EBB
:102626002E2E2E2E2E2E352E2E2E2E2E2E322E2EB9
:10263600332E2E382E2E2E2E362E2E2E342E2E2E97
:102646002E583936332E2E2E2E2E2E312E2E2E2E5F
:10265600382E2E2E2E2E2E322E352E2E2E2E342E79
:10266600382E2E2E2E2E2E312E2E2E2E372E2E2E6E
:102676002E2E2E332E2E3235372E2E2E2E2E2E3356
:102686002E2E2E392E322E342E372E2E2E2E2E2E46
:10269600392E2E5831352E332E2E2E2E2E2E372E07
:1026A6002E342E322E2E2E2E342E37322E2E2E2E27
:1026B6002E382E2E2E2E2E2E2E2E2E392E2E312E1C
:1026C600382E312E2E382E37392E2E2E2E2E2E33F4
:1026D600382E2E2E2E2E2E2E2E2E2E2E362E2E2E02
:1026E6002E37343233582E2E2E2E2E2E2E2E2E2EC2
:1026F600353732342E2E2E39382E2E2E2E393437AB
:102706002E2E2E392E2E332E2E2E352E2E392E2EC1
:1027160031322E2E2E332E312E392E2E2E362E2EB1
:102726002E2E32352E2E2E2E35362E2E2E2E2E37A0
:102736002E2E2E2E2E2E36582E2E2E2E37352E2E71
:102746002E2E312E2E322E2E2E2E2E342E2E2E3391
:102756002E2E2E352E2E2E2E2E332E322E2E2E3879
:102766002E2E2E312E2E2E2E2E2E2E362E2E2E2E78
:102776002E312E2E34382E322E2E2E2E2E2E2E2E5C
:10278600372E2E2E2E2E2E2E2E58362E2E2E2E2E28
:10279600372E332E342E382E2E2E2E2E2E2E2E2E35
:1027A6002E2E2E2E2E2E2E2E352E342E382E372E23
:1027B6002E322E2E2E2E2E312E332E2E2E2E2E2E27
:1027C6002E322E2E2E2E2E352E2E2E2E2E372E3904
:1027D6002E2E2E2E2E2E312E2E2E2E582E2E2E2EE6
:1027E600362E2E2E342E2E362E332E2E2E2E312EE5
:1027F6002E342E2E352E37372E2E2E2E2E382E35C3
:102806002E2E2E382E2E2E2E2E362E382E2E2E2EC6
:10281600392E2E2E322E392E2E2E2E342E2E2E2EB2
:1028260033322E2E2E2E39372E2E312E2E582E3373
:10283600322E2E2E2E2E35382E2E332E2E2E2E2E98
:10284600392E3432382E2E2E312E2E2E342E2E2E7A
:1028560033392E2E2E362E2E2E352E2E2E2E2E3170
:102866002E2E2E2E2E322E2E2E36372E382E2E2E63
:102876002E2E342E2E2E2E39352E2E2E2E362E5828
:102886002E2E2E352E332E2E2E2E2E2E2E362E3745
:102896002E2E352E382E2E2E2E313633362E2E3225
:1028A6002E2E2E2E2E2E2E342E312E2E2E2E2E2E39
:1028B6002E332E2E2E3536372E2E2E2E322E382E07
:1028C6002E342E372E2E2E2E2E2E2E322E2E352E08
:1028D6002E582E352E332E372E342E312E2E2E2ECA
:1028E6002E2E2E2E2E332E2E2E2E2E2E2E352E38EC
:1028F6002E332E36312E2E2E2E382E2E352E392EC6
:10290600362E2E312E2E2E2E2E2E2E2E342E2E2ED0
:10291600362E2E2E363932372E2E2E2E322E2E2EA5
:10292600392E2E582E2E352E2E382E2E31382E2E6E
:102936002E2E2E2E392E2E2E2E2E2E2E37382E2E93
:102946002E2E342E2E2E2E2E36342E2E2E2E392E82
:102956002E2E2E2E2E35332E2E322E362E2E2E2E79
:102966002E2E2E2E2E3133382E2E352E2E2E2E395D
:102976002E3731342E582E2E2E2E2E2E2E2E2E2E35
:1029860037322E362E312E2E2E2E35312E2E2E3835
:10299600322E382E2E2E31332E2E342E2E2E2E2E35
:1029A6002E2E2E2E33372E392E2E312E2E2E2E2E25
:1029B6003233382E2E352E342E2E392E2E2E2E2E06
:1029C6002E2E2E2E37392E582E2E2E3635382E2ECA
:1029D6002E2E2E342E2E2E2E2E2E31322E2E2E2E04
:1029E6002E2E2E2E2E2E2E2E39362E372E2E2E33E0
:1029F6002E2E352E2E2E2E322E382E2E2E332E2ED7
:102A060031392E2E382E2E332E362E2E2E2E2E34B5
:102A16002E2E2E2E3437332E2E582E322E332E2E89
:102A26002E2E2E2E2E362E2E382E392E38332E358D
:102A36002E2E2E2E2E2E2E2E322E2E2E382E372E99
:102A4600392E2E352E2E2E2E2E2E2E2E362E2E3480
:102A56002E2E2E2E2E2E2E312E2E2E312E2E2E3484
:102A66002E32322E2E372E2E382E39582E352E2E29
:102A7600392E2E2E2E312E2E2E2E2E362E2E2E2E5A
:102A86002E332E382E2E2E2E2E382E342E2E2E3936
:102A96003531342E2E2E2E2E2E2E332E2E2E2E3237
:102AA6002E2E2E2E2E2E2E2E2E2E342E382E2E2E30
:102AB600362E2E37372E2E31352E2E362E582E2EDA
:102AC6002E2E2E322E2E2E2E2E2E2E372E2E2E3110
:102AD600372E2E332E2E2E392E382E2E372E2E2EE4
:102AE6002E2E2E322E38392E362E2E2E31332E2ED7
:102AF600362E2E2E2E392E2E352E3832342E2E2EC2
:102B06002E2E3839312E2E2E2E2E2E2E2E2E2E589D
:102B1600332E2E2E382E2E2E2E2E2E2E372E2E2EB7
:102B26002E35312E2E2E2E2E2E2E2E2E2E2E2E2EB5
:102B36002E33362E2E2E322E2E342E2E2E2E372E8F
:102B46002E2E2E2E2E2E2E2E2E2E362E31332E2E8F
:102B56003435322E2E2E2E2E2E2E2E2E2E2E382E74
:102B66002E582E372E2E312E2E382E2E2E2E362E37
:102B760032342E2E2E2E2E2E2E2E2E2E2E2E2E2E65
:102B8600342E33322E2E2E38312E2E2E2E2E2E2E43
:102B96002E2E2E2E2E2E2E2E2E2E2E35382E2E3735
:102BA6002E322E2E2E372E2E2E2E332E2E2E2E2E2D
:102BB6002E2E2E58352E2E362E382E372E2E3133DB
:102BC6002E2E2E392E2E2E2E2E2E2E2E2E2E2E380A
:102BD6002E2E352E2E2E362E2E342E2E312E2E2EF7
:102BE6002E2E2E2E2E2E2E2E2E2E2E2E2E2E392EF4
:102BF600342E31362E2E322E2E2E2E2E2E2E2E2EDA
:102C06002E2E2E2E2E582E312E2E2E342E2E322EA7
:102C16002E362E2E2E2E382E2E2E2E2E2E332E2EB7
:102C26002E382E372E352E2E2E2E2E2E352E2E2E9D
:102C36002E2E2E2E2E2E2E2E2E2E2E342E332E329F
:102C46002E312E2E2E2E2E2E2E2E2E35372E2E3485
:102C56002E2E2E2E2E2E2E58322E372E2E2E2E2E57
:102C66002E352E2E332E2E2E2E2E2E2E2E2E2E346C
:102C76002E2E2E2E342E2E2E2E312E332E2E2E2E60
:102C8600322E2E2E2E2E2E2E2E2E2E342E2E2E384A
:102C960033362E2E2E2E2E2E2E2E2E372E35322E2D
:102CA6002E2E2E2E2E2E2E392E582E2E2E2E2E2E09
:102CB6002E3533382E2E2E362E2E2E2E2E2E2E2E10
:102CC6002E2E2E372E2E2E2E322E2E382E2E2E2E07
:102CD6002E372E352E2E2E312E2E2E2E2E2E2E2EFB
:102CE6002E37322E2E332E2E2E2E2E2E36312E34DB
:102CF6002E2E2E352E2E2E2E2E2E2E5838392E2EA8
:102D060035312E332E362E332E2E2E2E2E2E2E2EC1
:102D16002E372E2E2E2E2E392E2E332E2E322E2EB0
:102D26002E37322E2E2E35382E2E2E342E2E382E8F
:102D36002E392E2E2E2E2E322E2E2E2E2E2E2E2E9E
:102D46002E382E362E352E34312E2E3237582E2E44
:102D56002E2E2E372E332E2E312E2E2E2E2E2E2E7C
:102D6600362E2E2E2E2E2E2E2E352E2E32312E2E67
:102D76002E2E2E2E2E2E2E2E35342E2E2E2E382E56
:102D86002E2E2E2E2E2E2E2E382E312E32342E3341
:102D96002E2E362E2E2E372E2E2E2E2E2E2E2E5812
:102DA60033352E2E372E2E2E2E2E392E2E2E2E3219
:102DB6002E2E2E2E2E332E2E362E2E382E2E312E13
:102DC6002E2E2E352E2E2E2E2E2E2E2E392E332E06
:102DD600342E2E2E2E2E2E2E2E2E39322E2E2E34F2
:102DE6002E2E2E2E2E382E2E2E2E2E2E2E2E2E2EF3
:102DF6002E5833352E2E372E2E2E2E2E392E2E2EA3
:102E06002E322E2E2E2E2E332E2E362E2E382E2EC1
:102E1600312E2E2E2E352E2E2E2E2E2E2E2E392EB7
:102E2600332E342E2E2E2E2E2E2E2E2E39322E2EA2
:102E36002E342E2E2E2E2E382E2E2E2E2E2E2E2E9C
:102E46002E2E2E585A5A02030405060708090A0BA5
:102E56000C1314151C252E374049000001030405E8
:102E6600060708090A0B0C1314151D262F38414AAC
:102E7600000001020405060708090A0B0C131415C5
:102E86001E273039424B00000102030506070809D8
:102E96000D0E0F1617181F28313A434C0000010279
:102EA6000304060708090D0E0F1617182029323BD2
:102EB600444D000001020304050708090D0E0F1614
:102EC6001718212A333C454E00000102030405066B
:102ED6000809101112191A1B222B343D464F000007
:102EE6000102030405060709101112191A1B232CE7
:102EF600353E47500000010203040506070810117D
:102F060012191A1B242D363F485100000102030BEB
:102F16000C0D0E0F1011121314151C252E374049D7
:102F260000000102030A0C0D0E0F101112131415E6
:102F36001D262F38414A00000102030A0B0D0E0F11
:102F46001011121314151E273039424B00000405C8
:102F5600060A0B0C0E0F1011121617181F28313AFD
:102F6600434C00000405060A0B0C0D0F1011121637
:102F760017182029323B444D00000405060A0B0CA5
:102F86000D0E101112161718212A333C454E00005B
:102F96000708090A0B0C0D0E0F1112191A1B222B0A
:102FA600343D464F00000708090A0B0C0D0E0F10A2
:102FB60012191A1B232C353E475000000708090A30
:102FC6000B0C0D0E0F1011191A1B242D363F4851EC
:102FD60000000102030A0B0C1415161718191A1B08
:102FE6001C252E37404900000102030A0B0C13155D
:102FF600161718191A1B1D262F38414A0000010200
:10300600030A0B0C1314161718191A1B1E2730392E
:10301600424B00000405060D0E0F13141517181960
:103026001A1B1F28313A434C00000405060D0E0FEB
:103036001314151618191A1B2029323B444D00008B
:103046000405060D0E0F1314151617191A1B212A3F
:10305600333C454E000007080910111213141516CB
:1030660017181A1B222B343D464F0000070809107B
:103076001112131415161718191B232C353E475019
:103086000000070809101112131415161718191A3B
:10309600242D363F48510000010A131D1E1F202112
:1030A6002223242526272E2F303740490000020BE5
:1030B600141C1E1F20212223242526272E2F3038BC
:1030C600414A0000030C151C1D1F20212223242524
:1030D60026272E2F3039424B0000040D161C1D1ECC
:1030E600202122232428292A3132333A434C000056
:1030F600050E171C1D1E1F2122232428292A3132C2
:10310600333B444D0000060F181C1D1E1F202223B2
:103116002428292A3132333C454E00000710191C59
:103126001D1E1F202123242B2C2D3435363D464FC2
:10313600000008111A1C1D1E1F202122242B2C2DD5
:103146003435363E4750000009121B1C1D1E1F2039
:103156002122232B2C2D3435363F48510000010AFD
:10316600131C1D1E262728292A2B2C2D2E2F3037DF
:1031760040490000020B141C1D1E252728292A2B56
:103186002C2D2E2F3038414A0000030C151C1D1E15
:10319600252628292A2B2C2D2E2F3039424B00008C
:1031A600040D161F2021252627292A2B2C2D3132E6
:1031B600333A434C0000050E171F202125262728E9
:1031C6002A2B2C2D3132333B444D0000060F181F9D
:1031D600202125262728292B2C2D3132333C454EFC
:1031E600000007101922232425262728292A2C2DFA
:1031F6003435363D464F000008111A222324252671
:103206002728292A2B2D3435363E4750000009122F
:103216001B22232425262728292A2B2C3435363F02
:1032260048510000010A131C1D1E2526272F303188
:1032360032333435363740490000020B141C1D1E4C
:103246002526272E3031323334353638414A0000B0
:10325600030C151C1D1E2526272E2F31323334351F
:103266003639424B0000040D161F202128292A2E2C
:103276002F3032333435363A434C0000050E171FD3
:10328600202128292A2E2F3031333435363B444D20
:103296000000060F181F202128292A2E2F30313230
:1032A6003435363C454E00000710192223242B2CBA
:1032B6002D2E2F3031323335363D464F0000081162
:1032C6001A2223242B2C2D2E2F3031323334363E26
:1032D6004750000009121B2223242B2C2D2E2F30A1
:1032E60031323334353F48510000010A131C252E74
:1032F60038393A3B3C3D3E3F404142494A4B00004B
:10330600020B141D262F37393A3B3C3D3E3F4041C8
:1033160042494A4B0000030C151E273037383A3B0A
:103326003C3D3E3F404142494A4B0000040D161FBA
:1033360028313738393B3C3D3E3F4344454C4D4EA2
:103346000000050E172029323738393A3C3D3E3FFA
:103356004344454C4D4E0000060F18212A3337389A
:10336600393A3B3D3E3F4344454C4D4E0000071025
:1033760019222B343738393A3B3C3E3F4647484FB3
:103386005051000008111A232C353738393A3B3C86
:103396003D3F4647484F5051000009121B242D3629
:1033A6003738393A3B3C3D3E4647484F505100007E
:1033B600010A131C252E37383941424344454647F6
:1033C60048494A4B0000020B141D262F3738394056
:1033D60042434445464748494A4B0000030C151EE4
:1033E60027303738394041434445464748494A4BD8
:1033F6000000040D161F28313A3B3C40414244452B
:103406004647484C4D4E0000050E172029323A3BE0
:103416003C40414243454647484C4D4E0000060F4E
:1034260018212A333A3B3C40414243444647484CE4
:103436004D4E0000071019222B343D3E3F404142BD
:1034460043444547484F5051000008111A232C3574
:103456003D3E3F40414243444546484F505100009F
:1034660009121B242D363D3E3F404142434445460A
:10347600474F50510000010A131C252E373839409A
:1034860041424A4B4C4D4E4F50510000020B141D09
:10349600262F373839404142494B4C4D4E4F5051FB
:1034A6000000030C151E2730373839404142494A7F
:1034B6004C4D4E4F50510000040D161F28313A3B1B
:1034C6003C434445494A4B4D4E4F50510000050E72
:1034D600172029323A3B3C434445494A4B4C4E4F10
:1034E60050510000060F18212A333A3B3C4344450D
:1034F600494A4B4C4D4F50510000071019222B34AE
:103506003D3E3F464748494A4B4C4D4E50510000C0
:1035160008111A232C353D3E3F464748494A4B4C35
:103526004D4E4F51000009121B242D363D3E3F469D
:103536004748494A4B4C4D4E4F50000048482000E2
:00000001FF
